{
  "_format": "hh-sol-artifact-1",
  "contractName": "Crowdfunding",
  "sourceName": "contracts/Crowdfunding.sol",
  "abi": [
    {
      "anonymous": false,
      "inputs": [
        {
          "indexed": false,
          "internalType": "uint256",
          "name": "id",
          "type": "uint256"
        },
        {
          "indexed": false,
          "internalType": "address",
          "name": "owner",
          "type": "address"
        },
        {
          "indexed": false,
          "internalType": "string",
          "name": "title",
          "type": "string"
        },
        {
          "indexed": false,
          "internalType": "uint256",
          "name": "goal",
          "type": "uint256"
        }
      ],
      "name": "CampaignCreated",
      "type": "event"
    },
    {
      "anonymous": false,
      "inputs": [
        {
          "indexed": false,
          "internalType": "uint256",
          "name": "id",
          "type": "uint256"
        },
        {
          "indexed": false,
          "internalType": "address",
          "name": "donor",
          "type": "address"
        },
        {
          "indexed": false,
          "internalType": "uint256",
          "name": "amount",
          "type": "uint256"
        }
      ],
      "name": "DonationReceived",
      "type": "event"
    },
    {
      "inputs": [],
      "name": "campaignCount",
      "outputs": [
        {
          "internalType": "uint256",
          "name": "",
          "type": "uint256"
        }
      ],
      "stateMutability": "view",
      "type": "function"
    },
    {
      "inputs": [
        {
          "internalType": "uint256",
          "name": "",
          "type": "uint256"
        }
      ],
      "name": "campaigns",
      "outputs": [
        {
          "internalType": "address",
          "name": "owner",
          "type": "address"
        },
        {
          "internalType": "string",
          "name": "title",
          "type": "string"
        },
        {
          "internalType": "string",
          "name": "description",
          "type": "string"
        },
        {
          "internalType": "uint256",
          "name": "goal",
          "type": "uint256"
        },
        {
          "internalType": "uint256",
          "name": "amountCollected",
          "type": "uint256"
        },
        {
          "internalType": "bool",
          "name": "completed",
          "type": "bool"
        }
      ],
      "stateMutability": "view",
      "type": "function"
    },
    {
      "inputs": [
        {
          "internalType": "string",
          "name": "_title",
          "type": "string"
        },
        {
          "internalType": "string",
          "name": "_description",
          "type": "string"
        },
        {
          "internalType": "uint256",
          "name": "_goal",
          "type": "uint256"
        }
      ],
      "name": "createCampaign",
      "outputs": [],
      "stateMutability": "nonpayable",
      "type": "function"
    },
    {
      "inputs": [
        {
          "internalType": "uint256",
          "name": "_id",
          "type": "uint256"
        }
      ],
      "name": "donateToCampaign",
      "outputs": [],
      "stateMutability": "payable",
      "type": "function"
    },
    {
      "inputs": [
        {
          "internalType": "uint256",
          "name": "_id",
          "type": "uint256"
        }
      ],
      "name": "getCampaign",
      "outputs": [
        {
          "components": [
            {
              "internalType": "address",
              "name": "owner",
              "type": "address"
            },
            {
              "internalType": "string",
              "name": "title",
              "type": "string"
            },
            {
              "internalType": "string",
              "name": "description",
              "type": "string"
            },
            {
              "internalType": "uint256",
              "name": "goal",
              "type": "uint256"
            },
            {
              "internalType": "uint256",
              "name": "amountCollected",
              "type": "uint256"
            },
            {
              "internalType": "bool",
              "name": "completed",
              "type": "bool"
            }
          ],
          "internalType": "struct Crowdfunding.Campaign",
          "name": "",
          "type": "tuple"
        }
      ],
      "stateMutability": "view",
      "type": "function"
    },
    {
      "inputs": [
        {
          "internalType": "uint256",
          "name": "_id",
          "type": "uint256"
        }
      ],
      "name": "withdrawFunds",
      "outputs": [],
      "stateMutability": "nonpayable",
      "type": "function"
    }
  ],
  "bytecode": "0x608060405234801561001057600080fd5b506115b0806100206000396000f3fe6080604052600436106100555760003560e01c8063141961bc1461005a578063155dd5ee1461009c57806342a4fda8146100c55780635598f8cc146100e15780637274e30d1461011e578063ffa56a5714610149575b600080fd5b34801561006657600080fd5b50610081600480360381019061007c9190610a25565b610172565b60405161009396959493929190610b4d565b60405180910390f35b3480156100a857600080fd5b506100c360048036038101906100be9190610a25565b6102eb565b005b6100df60048036038101906100da9190610a25565b6104d3565b005b3480156100ed57600080fd5b5061010860048036038101906101039190610a25565b6105ca565b6040516101159190610cc3565b60405180910390f35b34801561012a57600080fd5b506101336107e3565b6040516101409190610ce5565b60405180910390f35b34801561015557600080fd5b50610170600480360381019061016b9190610e35565b6107e9565b005b60006020528060005260406000206000915090508060000160009054906101000a900473ffffffffffffffffffffffffffffffffffffffff16908060010180546101bb90610eef565b80601f01602080910402602001604051908101604052809291908181526020018280546101e790610eef565b80156102345780601f1061020957610100808354040283529160200191610234565b820191906000526020600020905b81548152906001019060200180831161021757829003601f168201915b50505050509080600201805461024990610eef565b80601f016020809104026020016040519081016040528092919081815260200182805461027590610eef565b80156102c25780601f10610297576101008083540402835291602001916102c2565b820191906000526020600020905b8154815290600101906020018083116102a557829003601f168201915b5050505050908060030154908060040154908060050160009054906101000a900460ff16905086565b8060008082815260200190815260200160002060000160009054906101000a900473ffffffffffffffffffffffffffffffffffffffff1673ffffffffffffffffffffffffffffffffffffffff163373ffffffffffffffffffffffffffffffffffffffff161461038f576040517f08c379a000000000000000000000000000000000000000000000000000000000815260040161038690610f6c565b60405180910390fd5b600080600084815260200190815260200160002090508060030154816004015410156103f0576040517f08c379a00000000000000000000000000000000000000000000000000000000081526004016103e790610fd8565b60405180910390fd5b8060050160009054906101000a900460ff1615610442576040517f08c379a000000000000000000000000000000000000000000000000000000000815260040161043990611044565b60405180910390fd5b60018160050160006101000a81548160ff0219169083151502179055508060000160009054906101000a900473ffffffffffffffffffffffffffffffffffffffff1673ffffffffffffffffffffffffffffffffffffffff166108fc82600401549081150290604051600060405180830381858888f193505050501580156104cd573d6000803e3d6000fd5b50505050565b60003411610516576040517f08c379a000000000000000000000000000000000000000000000000000000000815260040161050d906110d6565b60405180910390fd5b600154811061055a576040517f08c379a000000000000000000000000000000000000000000000000000000000815260040161055190611142565b60405180910390fd5b60008060008381526020019081526020016000209050348160040160008282546105849190611191565b925050819055507f0b5b4c52969ff7329ecf7ee536409fda87812b15a8622bc6e8cdeab3aee14a268233346040516105be939291906111c5565b60405180910390a15050565b6105d261098d565b6001548210610616576040517f08c379a000000000000000000000000000000000000000000000000000000000815260040161060d90611142565b60405180910390fd5b6000808381526020019081526020016000206040518060c00160405290816000820160009054906101000a900473ffffffffffffffffffffffffffffffffffffffff1673ffffffffffffffffffffffffffffffffffffffff1673ffffffffffffffffffffffffffffffffffffffff16815260200160018201805461069990610eef565b80601f01602080910402602001604051908101604052809291908181526020018280546106c590610eef565b80156107125780601f106106e757610100808354040283529160200191610712565b820191906000526020600020905b8154815290600101906020018083116106f557829003601f168201915b5050505050815260200160028201805461072b90610eef565b80601f016020809104026020016040519081016040528092919081815260200182805461075790610eef565b80156107a45780601f10610779576101008083540402835291602001916107a4565b820191906000526020600020905b81548152906001019060200180831161078757829003601f168201915b5050505050815260200160038201548152602001600482015481526020016005820160009054906101000a900460ff1615151515815250509050919050565b60015481565b6000811161082c576040517f08c379a000000000000000000000000000000000000000000000000000000000815260040161082390611248565b60405180910390fd5b6040518060c001604052803373ffffffffffffffffffffffffffffffffffffffff1681526020018481526020018381526020018281526020016000815260200160001515815250600080600154815260200190815260200160002060008201518160000160006101000a81548173ffffffffffffffffffffffffffffffffffffffff021916908373ffffffffffffffffffffffffffffffffffffffff16021790555060208201518160010190816108e39190611414565b5060408201518160020190816108f99190611414565b50606082015181600301556080820151816004015560a08201518160050160006101000a81548160ff0219169083151502179055509050507f825fb10f7650ed27414d6f86acdf7d5946927d9b25001f045f1a2435deec02fe60015433858460405161096894939291906114e6565b60405180910390a16001600081548092919061098390611532565b9190505550505050565b6040518060c00160405280600073ffffffffffffffffffffffffffffffffffffffff168152602001606081526020016060815260200160008152602001600081526020016000151581525090565b6000604051905090565b600080fd5b600080fd5b6000819050919050565b610a02816109ef565b8114610a0d57600080fd5b50565b600081359050610a1f816109f9565b92915050565b600060208284031215610a3b57610a3a6109e5565b5b6000610a4984828501610a10565b91505092915050565b600073ffffffffffffffffffffffffffffffffffffffff82169050919050565b6000610a7d82610a52565b9050919050565b610a8d81610a72565b82525050565b600081519050919050565b600082825260208201905092915050565b60005b83811015610acd578082015181840152602081019050610ab2565b60008484015250505050565b6000601f19601f8301169050919050565b6000610af582610a93565b610aff8185610a9e565b9350610b0f818560208601610aaf565b610b1881610ad9565b840191505092915050565b610b2c816109ef565b82525050565b60008115159050919050565b610b4781610b32565b82525050565b600060c082019050610b626000830189610a84565b8181036020830152610b748188610aea565b90508181036040830152610b888187610aea565b9050610b976060830186610b23565b610ba46080830185610b23565b610bb160a0830184610b3e565b979650505050505050565b610bc581610a72565b82525050565b600082825260208201905092915050565b6000610be782610a93565b610bf18185610bcb565b9350610c01818560208601610aaf565b610c0a81610ad9565b840191505092915050565b610c1e816109ef565b82525050565b610c2d81610b32565b82525050565b600060c083016000830151610c4b6000860182610bbc565b5060208301518482036020860152610c638282610bdc565b91505060408301518482036040860152610c7d8282610bdc565b9150506060830151610c926060860182610c15565b506080830151610ca56080860182610c15565b5060a0830151610cb860a0860182610c24565b508091505092915050565b60006020820190508181036000830152610cdd8184610c33565b905092915050565b6000602082019050610cfa6000830184610b23565b92915050565b600080fd5b600080fd5b7f4e487b7100000000000000000000000000000000000000000000000000000000600052604160045260246000fd5b610d4282610ad9565b810181811067ffffffffffffffff82111715610d6157610d60610d0a565b5b80604052505050565b6000610d746109db565b9050610d808282610d39565b919050565b600067ffffffffffffffff821115610da057610d9f610d0a565b5b610da982610ad9565b9050602081019050919050565b82818337600083830152505050565b6000610dd8610dd384610d85565b610d6a565b905082815260208101848484011115610df457610df3610d05565b5b610dff848285610db6565b509392505050565b600082601f830112610e1c57610e1b610d00565b5b8135610e2c848260208601610dc5565b91505092915050565b600080600060608486031215610e4e57610e4d6109e5565b5b600084013567ffffffffffffffff811115610e6c57610e6b6109ea565b5b610e7886828701610e07565b935050602084013567ffffffffffffffff811115610e9957610e986109ea565b5b610ea586828701610e07565b9250506040610eb686828701610a10565b9150509250925092565b7f4e487b7100000000000000000000000000000000000000000000000000000000600052602260045260246000fd5b60006002820490506001821680610f0757607f821691505b602082108103610f1a57610f19610ec0565b5b50919050565b7f4e6f742063616d706169676e206f776e65720000000000000000000000000000600082015250565b6000610f56601283610a9e565b9150610f6182610f20565b602082019050919050565b60006020820190508181036000830152610f8581610f49565b9050919050565b7f476f616c206e6f74207265616368656400000000000000000000000000000000600082015250565b6000610fc2601083610a9e565b9150610fcd82610f8c565b602082019050919050565b60006020820190508181036000830152610ff181610fb5565b9050919050565b7f416c72656164792077697468647261776e000000000000000000000000000000600082015250565b600061102e601183610a9e565b915061103982610ff8565b602082019050919050565b6000602082019050818103600083015261105d81611021565b9050919050565b7f446f6e6174696f6e206d7573742062652067726561746572207468616e207a6560008201527f726f000000000000000000000000000000000000000000000000000000000000602082015250565b60006110c0602283610a9e565b91506110cb82611064565b604082019050919050565b600060208201905081810360008301526110ef816110b3565b9050919050565b7f496e76616c69642063616d706169676e20494400000000000000000000000000600082015250565b600061112c601383610a9e565b9150611137826110f6565b602082019050919050565b6000602082019050818103600083015261115b8161111f565b9050919050565b7f4e487b7100000000000000000000000000000000000000000000000000000000600052601160045260246000fd5b600061119c826109ef565b91506111a7836109ef565b92508282019050808211156111bf576111be611162565b5b92915050565b60006060820190506111da6000830186610b23565b6111e76020830185610a84565b6111f46040830184610b23565b949350505050565b7f476f616c206d7573742062652067726561746572207468616e207a65726f0000600082015250565b6000611232601e83610a9e565b915061123d826111fc565b602082019050919050565b6000602082019050818103600083015261126181611225565b9050919050565b60008190508160005260206000209050919050565b60006020601f8301049050919050565b600082821b905092915050565b6000600883026112ca7fffffffffffffffffffffffffffffffffffffffffffffffffffffffffffffffff8261128d565b6112d4868361128d565b95508019841693508086168417925050509392505050565b6000819050919050565b600061131161130c611307846109ef565b6112ec565b6109ef565b9050919050565b6000819050919050565b61132b836112f6565b61133f61133782611318565b84845461129a565b825550505050565b600090565b611354611347565b61135f818484611322565b505050565b5b818110156113835761137860008261134c565b600181019050611365565b5050565b601f8211156113c85761139981611268565b6113a28461127d565b810160208510156113b1578190505b6113c56113bd8561127d565b830182611364565b50505b505050565b600082821c905092915050565b60006113eb600019846008026113cd565b1980831691505092915050565b600061140483836113da565b9150826002028217905092915050565b61141d82610a93565b67ffffffffffffffff81111561143657611435610d0a565b5b6114408254610eef565b61144b828285611387565b600060209050601f83116001811461147e576000841561146c578287015190505b61147685826113f8565b8655506114de565b601f19841661148c86611268565b60005b828110156114b45784890151825560018201915060208501945060208101905061148f565b868310156114d157848901516114cd601f8916826113da565b8355505b6001600288020188555050505b505050505050565b60006080820190506114fb6000830187610b23565b6115086020830186610a84565b818103604083015261151a8185610aea565b90506115296060830184610b23565b95945050505050565b600061153d826109ef565b91507fffffffffffffffffffffffffffffffffffffffffffffffffffffffffffffffff820361156f5761156e611162565b5b60018201905091905056fea2646970667358221220f729e951438e323a2a195a0cd3206f114dd0986be87abd36af5a68756814720064736f6c63430008130033",
  "linkReferences": {},
  "deployedLinkReferences": {}
}